{
  "_format": "hh-sol-artifact-1",
  "contractName": "MusicNFTMarketplace",
  "sourceName": "src/backend/contracts/MusicNFTMarketplace.sol",
  "abi": [
    {
      "inputs": [
        {
          "internalType": "uint256[]",
          "name": "_prices",
          "type": "uint256[]"
        }
      ],
      "stateMutability": "payable",
      "type": "constructor"
    },
    {
      "anonymous": false,
      "inputs": [
        {
          "indexed": true,
          "internalType": "address",
          "name": "owner",
          "type": "address"
        },
        {
          "indexed": true,
          "internalType": "address",
          "name": "approved",
          "type": "address"
        },
        {
          "indexed": true,
          "internalType": "uint256",
          "name": "tokenId",
          "type": "uint256"
        }
      ],
      "name": "Approval",
      "type": "event"
    },
    {
      "anonymous": false,
      "inputs": [
        {
          "indexed": true,
          "internalType": "address",
          "name": "owner",
          "type": "address"
        },
        {
          "indexed": true,
          "internalType": "address",
          "name": "operator",
          "type": "address"
        },
        {
          "indexed": false,
          "internalType": "bool",
          "name": "approved",
          "type": "bool"
        }
      ],
      "name": "ApprovalForAll",
      "type": "event"
    },
    {
      "anonymous": false,
      "inputs": [
        {
          "indexed": true,
          "internalType": "uint256",
          "name": "tokenId",
          "type": "uint256"
        },
        {
          "indexed": true,
          "internalType": "address",
          "name": "seller",
          "type": "address"
        },
        {
          "indexed": false,
          "internalType": "address",
          "name": "buyer",
          "type": "address"
        },
        {
          "indexed": false,
          "internalType": "uint256",
          "name": "price",
          "type": "uint256"
        }
      ],
      "name": "MarketItemBought",
      "type": "event"
    },
    {
      "anonymous": false,
      "inputs": [
        {
          "indexed": true,
          "internalType": "uint256",
          "name": "tokenId",
          "type": "uint256"
        },
        {
          "indexed": true,
          "internalType": "address",
          "name": "seller",
          "type": "address"
        },
        {
          "indexed": false,
          "internalType": "uint256",
          "name": "price",
          "type": "uint256"
        }
      ],
      "name": "MarketItemRelisted",
      "type": "event"
    },
    {
      "anonymous": false,
      "inputs": [
        {
          "indexed": true,
          "internalType": "address",
          "name": "previousOwner",
          "type": "address"
        },
        {
          "indexed": true,
          "internalType": "address",
          "name": "newOwner",
          "type": "address"
        }
      ],
      "name": "OwnershipTransferred",
      "type": "event"
    },
    {
      "anonymous": false,
      "inputs": [
        {
          "indexed": true,
          "internalType": "address",
          "name": "from",
          "type": "address"
        },
        {
          "indexed": true,
          "internalType": "address",
          "name": "to",
          "type": "address"
        },
        {
          "indexed": true,
          "internalType": "uint256",
          "name": "tokenId",
          "type": "uint256"
        }
      ],
      "name": "Transfer",
      "type": "event"
    },
    {
      "inputs": [
        {
          "internalType": "address",
          "name": "to",
          "type": "address"
        },
        {
          "internalType": "uint256",
          "name": "tokenId",
          "type": "uint256"
        }
      ],
      "name": "approve",
      "outputs": [],
      "stateMutability": "nonpayable",
      "type": "function"
    },
    {
      "inputs": [
        {
          "internalType": "address",
          "name": "owner",
          "type": "address"
        }
      ],
      "name": "balanceOf",
      "outputs": [
        {
          "internalType": "uint256",
          "name": "",
          "type": "uint256"
        }
      ],
      "stateMutability": "view",
      "type": "function"
    },
    {
      "inputs": [],
      "name": "baseURI",
      "outputs": [
        {
          "internalType": "string",
          "name": "",
          "type": "string"
        }
      ],
      "stateMutability": "view",
      "type": "function"
    },
    {
      "inputs": [
        {
          "internalType": "uint256",
          "name": "_tokenId",
          "type": "uint256"
        }
      ],
      "name": "buyToken",
      "outputs": [],
      "stateMutability": "payable",
      "type": "function"
    },
    {
      "inputs": [],
      "name": "getAllUnsoldTokens",
      "outputs": [
        {
          "components": [
            {
              "internalType": "uint256",
              "name": "tokenId",
              "type": "uint256"
            },
            {
              "internalType": "address payable",
              "name": "seller",
              "type": "address"
            },
            {
              "internalType": "uint256",
              "name": "price",
              "type": "uint256"
            }
          ],
          "internalType": "struct MusicNFTMarketplace.MarketItem[]",
          "name": "",
          "type": "tuple[]"
        }
      ],
      "stateMutability": "view",
      "type": "function"
    },
    {
      "inputs": [
        {
          "internalType": "uint256",
          "name": "tokenId",
          "type": "uint256"
        }
      ],
      "name": "getApproved",
      "outputs": [
        {
          "internalType": "address",
          "name": "",
          "type": "address"
        }
      ],
      "stateMutability": "view",
      "type": "function"
    },
    {
      "inputs": [],
      "name": "getMyTokens",
      "outputs": [
        {
          "components": [
            {
              "internalType": "uint256",
              "name": "tokenId",
              "type": "uint256"
            },
            {
              "internalType": "address payable",
              "name": "seller",
              "type": "address"
            },
            {
              "internalType": "uint256",
              "name": "price",
              "type": "uint256"
            }
          ],
          "internalType": "struct MusicNFTMarketplace.MarketItem[]",
          "name": "",
          "type": "tuple[]"
        }
      ],
      "stateMutability": "view",
      "type": "function"
    },
    {
      "inputs": [
        {
          "internalType": "address",
          "name": "owner",
          "type": "address"
        },
        {
          "internalType": "address",
          "name": "operator",
          "type": "address"
        }
      ],
      "name": "isApprovedForAll",
      "outputs": [
        {
          "internalType": "bool",
          "name": "",
          "type": "bool"
        }
      ],
      "stateMutability": "view",
      "type": "function"
    },
    {
      "inputs": [
        {
          "internalType": "uint256",
          "name": "",
          "type": "uint256"
        }
      ],
      "name": "marketItems",
      "outputs": [
        {
          "internalType": "uint256",
          "name": "tokenId",
          "type": "uint256"
        },
        {
          "internalType": "address payable",
          "name": "seller",
          "type": "address"
        },
        {
          "internalType": "uint256",
          "name": "price",
          "type": "uint256"
        }
      ],
      "stateMutability": "view",
      "type": "function"
    },
    {
      "inputs": [],
      "name": "name",
      "outputs": [
        {
          "internalType": "string",
          "name": "",
          "type": "string"
        }
      ],
      "stateMutability": "view",
      "type": "function"
    },
    {
      "inputs": [],
      "name": "owner",
      "outputs": [
        {
          "internalType": "address",
          "name": "",
          "type": "address"
        }
      ],
      "stateMutability": "view",
      "type": "function"
    },
    {
      "inputs": [
        {
          "internalType": "uint256",
          "name": "tokenId",
          "type": "uint256"
        }
      ],
      "name": "ownerOf",
      "outputs": [
        {
          "internalType": "address",
          "name": "",
          "type": "address"
        }
      ],
      "stateMutability": "view",
      "type": "function"
    },
    {
      "inputs": [],
      "name": "renounceOwnership",
      "outputs": [],
      "stateMutability": "nonpayable",
      "type": "function"
    },
    {
      "inputs": [
        {
          "internalType": "uint256",
          "name": "_tokenId",
          "type": "uint256"
        },
        {
          "internalType": "uint256",
          "name": "_price",
          "type": "uint256"
        }
      ],
      "name": "resellToken",
      "outputs": [],
      "stateMutability": "nonpayable",
      "type": "function"
    },
    {
      "inputs": [
        {
          "internalType": "address",
          "name": "from",
          "type": "address"
        },
        {
          "internalType": "address",
          "name": "to",
          "type": "address"
        },
        {
          "internalType": "uint256",
          "name": "tokenId",
          "type": "uint256"
        }
      ],
      "name": "safeTransferFrom",
      "outputs": [],
      "stateMutability": "nonpayable",
      "type": "function"
    },
    {
      "inputs": [
        {
          "internalType": "address",
          "name": "from",
          "type": "address"
        },
        {
          "internalType": "address",
          "name": "to",
          "type": "address"
        },
        {
          "internalType": "uint256",
          "name": "tokenId",
          "type": "uint256"
        },
        {
          "internalType": "bytes",
          "name": "_data",
          "type": "bytes"
        }
      ],
      "name": "safeTransferFrom",
      "outputs": [],
      "stateMutability": "nonpayable",
      "type": "function"
    },
    {
      "inputs": [
        {
          "internalType": "address",
          "name": "operator",
          "type": "address"
        },
        {
          "internalType": "bool",
          "name": "approved",
          "type": "bool"
        }
      ],
      "name": "setApprovalForAll",
      "outputs": [],
      "stateMutability": "nonpayable",
      "type": "function"
    },
    {
      "inputs": [
        {
          "internalType": "bytes4",
          "name": "interfaceId",
          "type": "bytes4"
        }
      ],
      "name": "supportsInterface",
      "outputs": [
        {
          "internalType": "bool",
          "name": "",
          "type": "bool"
        }
      ],
      "stateMutability": "view",
      "type": "function"
    },
    {
      "inputs": [],
      "name": "symbol",
      "outputs": [
        {
          "internalType": "string",
          "name": "",
          "type": "string"
        }
      ],
      "stateMutability": "view",
      "type": "function"
    },
    {
      "inputs": [
        {
          "internalType": "uint256",
          "name": "tokenId",
          "type": "uint256"
        }
      ],
      "name": "tokenURI",
      "outputs": [
        {
          "internalType": "string",
          "name": "",
          "type": "string"
        }
      ],
      "stateMutability": "view",
      "type": "function"
    },
    {
      "inputs": [
        {
          "internalType": "address",
          "name": "from",
          "type": "address"
        },
        {
          "internalType": "address",
          "name": "to",
          "type": "address"
        },
        {
          "internalType": "uint256",
          "name": "tokenId",
          "type": "uint256"
        }
      ],
      "name": "transferFrom",
      "outputs": [],
      "stateMutability": "nonpayable",
      "type": "function"
    },
    {
      "inputs": [
        {
          "internalType": "address",
          "name": "newOwner",
          "type": "address"
        }
      ],
      "name": "transferOwnership",
      "outputs": [],
      "stateMutability": "nonpayable",
      "type": "function"
    }
  ],
  "bytecode": "0x60806040526040518060600160405280602281526020016200447b60229139600790805190602001906200003592919062000626565b506040516200449d3803806200449d83398181016040528101906200005b91906200078f565b6040518060400160405280600681526020017f44417070466900000000000000000000000000000000000000000000000000008152506040518060400160405280600481526020017f44415050000000000000000000000000000000000000000000000000000000008152508160009080519060200190620000df92919062000626565b508060019080519060200190620000f892919062000626565b5050506200011b6200010f620002e860201b60201c565b620002f060201b60201c565b60005b60078160ff161015620002e0576000828260ff16815181106200016a577f4e487b7100000000000000000000000000000000000000000000000000000000600052603260045260246000fd5b602002602001015111620001b5576040517f08c379a0000000000000000000000000000000000000000000000000000000008152600401620001ac906200088d565b60405180910390fd5b620001ca308260ff16620003b660201b60201c565b600860405180606001604052808360ff1681526020013373ffffffffffffffffffffffffffffffffffffffff168152602001848460ff168151811062000239577f4e487b7100000000000000000000000000000000000000000000000000000000600052603260045260246000fd5b602002602001015181525090806001815401808255809150506001900390600052602060002090600302016000909190919091506000820151816000015560208201518160010160006101000a81548173ffffffffffffffffffffffffffffffffffffffff021916908373ffffffffffffffffffffffffffffffffffffffff1602179055506040820151816002015550508080620002d790620009f8565b9150506200011e565b505062000b5a565b600033905090565b6000600660009054906101000a900473ffffffffffffffffffffffffffffffffffffffff16905081600660006101000a81548173ffffffffffffffffffffffffffffffffffffffff021916908373ffffffffffffffffffffffffffffffffffffffff1602179055508173ffffffffffffffffffffffffffffffffffffffff168173ffffffffffffffffffffffffffffffffffffffff167f8be0079c531659141344cd1fd0a4f28419497f9722a3daafe3b4186f6b6457e060405160405180910390a35050565b600073ffffffffffffffffffffffffffffffffffffffff168273ffffffffffffffffffffffffffffffffffffffff16141562000429576040517f08c379a000000000000000000000000000000000000000000000000000000000815260040162000420906200086b565b60405180910390fd5b6200043a81620005b060201b60201c565b156200047d576040517f08c379a0000000000000000000000000000000000000000000000000000000008152600401620004749062000849565b60405180910390fd5b62000491600083836200061c60201b60201c565b6001600360008473ffffffffffffffffffffffffffffffffffffffff1673ffffffffffffffffffffffffffffffffffffffff1681526020019081526020016000206000828254620004e3919062000918565b92505081905550816002600083815260200190815260200160002060006101000a81548173ffffffffffffffffffffffffffffffffffffffff021916908373ffffffffffffffffffffffffffffffffffffffff160217905550808273ffffffffffffffffffffffffffffffffffffffff16600073ffffffffffffffffffffffffffffffffffffffff167fddf252ad1be2c89b69c2b068fc378daa952ba7f163c4a11628f55a4df523b3ef60405160405180910390a4620005ac600083836200062160201b60201c565b5050565b60008073ffffffffffffffffffffffffffffffffffffffff166002600084815260200190815260200160002060009054906101000a900473ffffffffffffffffffffffffffffffffffffffff1673ffffffffffffffffffffffffffffffffffffffff1614159050919050565b505050565b505050565b82805462000634906200098c565b90600052602060002090601f016020900481019282620006585760008555620006a4565b82601f106200067357805160ff1916838001178555620006a4565b82800160010185558215620006a4579182015b82811115620006a357825182559160200191906001019062000686565b5b509050620006b39190620006b7565b5090565b5b80821115620006d2576000816000905550600101620006b8565b5090565b6000620006ed620006e784620008d8565b620008af565b905080838252602082019050828560208602820111156200070d57600080fd5b60005b8581101562000741578162000726888262000778565b84526020840193506020830192505060018101905062000710565b5050509392505050565b600082601f8301126200075d57600080fd5b81516200076f848260208601620006d6565b91505092915050565b600081519050620007898162000b40565b92915050565b600060208284031215620007a257600080fd5b600082015167ffffffffffffffff811115620007bd57600080fd5b620007cb848285016200074b565b91505092915050565b6000620007e3601c8362000907565b9150620007f08262000ac5565b602082019050919050565b60006200080a60208362000907565b9150620008178262000aee565b602082019050919050565b600062000831601c8362000907565b91506200083e8262000b17565b602082019050919050565b600060208201905081810360008301526200086481620007d4565b9050919050565b600060208201905081810360008301526200088681620007fb565b9050919050565b60006020820190508181036000830152620008a88162000822565b9050919050565b6000620008bb620008ce565b9050620008c98282620009c2565b919050565b6000604051905090565b600067ffffffffffffffff821115620008f657620008f562000a85565b5b602082029050602081019050919050565b600082825260208201905092915050565b6000620009258262000975565b9150620009328362000975565b9250827fffffffffffffffffffffffffffffffffffffffffffffffffffffffffffffffff038211156200096a576200096962000a27565b5b828201905092915050565b6000819050919050565b600060ff82169050919050565b60006002820490506001821680620009a557607f821691505b60208210811415620009bc57620009bb62000a56565b5b50919050565b620009cd8262000ab4565b810181811067ffffffffffffffff82111715620009ef57620009ee62000a85565b5b80604052505050565b600062000a05826200097f565b915060ff82141562000a1c5762000a1b62000a27565b5b600182019050919050565b7f4e487b7100000000000000000000000000000000000000000000000000000000600052601160045260246000fd5b7f4e487b7100000000000000000000000000000000000000000000000000000000600052602260045260246000fd5b7f4e487b7100000000000000000000000000000000000000000000000000000000600052604160045260246000fd5b6000601f19601f8301169050919050565b7f4552433732313a20746f6b656e20616c7265616479206d696e74656400000000600082015250565b7f4552433732313a206d696e7420746f20746865207a65726f2061646472657373600082015250565b7f5072696365206d7573742062652067726561746572207468616e203000000000600082015250565b62000b4b8162000975565b811462000b5757600080fd5b50565b6139118062000b6a6000396000f3fe6080604052600436106101355760003560e01c806370a08231116100ab578063a22cb4651161006f578063a22cb4651461041d578063b88d4fde14610446578063c87b56dd1461046f578063e219fc75146104ac578063e985e9c5146104d5578063f2fde38b1461051257610135565b806370a0823114610348578063715018a614610385578063767dd0761461039c5780638da5cb5b146103c757806395d89b41146103f257610135565b80632d296bf1116100fd5780632d296bf11461023157806342842e0e1461024d57806351f28e14146102765780635b3b136a146102b55780636352211e146102e05780636c0360eb1461031d57610135565b806301ffc9a71461013a57806306fdde0314610177578063081812fc146101a2578063095ea7b3146101df57806323b872dd14610208575b600080fd5b34801561014657600080fd5b50610161600480360381019061015c9190612703565b61053b565b60405161016e9190612cbb565b60405180910390f35b34801561018357600080fd5b5061018c61061d565b6040516101999190612cd6565b60405180910390f35b3480156101ae57600080fd5b506101c960048036038101906101c49190612755565b6106af565b6040516101d69190612c09565b60405180910390f35b3480156101eb57600080fd5b50610206600480360381019061020191906126c7565b610734565b005b34801561021457600080fd5b5061022f600480360381019061022a91906125c1565b61084c565b005b61024b60048036038101906102469190612755565b6108ac565b005b34801561025957600080fd5b50610274600480360381019061026f91906125c1565b610b51565b005b34801561028257600080fd5b5061029d60048036038101906102989190612755565b610b71565b6040516102ac93929190612f53565b60405180910390f35b3480156102c157600080fd5b506102ca610bcb565b6040516102d79190612c99565b60405180910390f35b3480156102ec57600080fd5b5061030760048036038101906103029190612755565b610dd6565b6040516103149190612c09565b60405180910390f35b34801561032957600080fd5b50610332610e88565b60405161033f9190612cd6565b60405180910390f35b34801561035457600080fd5b5061036f600480360381019061036a919061255c565b610f16565b60405161037c9190612f38565b60405180910390f35b34801561039157600080fd5b5061039a610fce565b005b3480156103a857600080fd5b506103b1611056565b6040516103be9190612c99565b60405180910390f35b3480156103d357600080fd5b506103dc61138e565b6040516103e99190612c09565b60405180910390f35b3480156103fe57600080fd5b506104076113b8565b6040516104149190612cd6565b60405180910390f35b34801561042957600080fd5b50610444600480360381019061043f919061268b565b61144a565b005b34801561045257600080fd5b5061046d60048036038101906104689190612610565b611460565b005b34801561047b57600080fd5b5061049660048036038101906104919190612755565b6114c2565b6040516104a39190612cd6565b60405180910390f35b3480156104b857600080fd5b506104d360048036038101906104ce919061277e565b611569565b005b3480156104e157600080fd5b506104fc60048036038101906104f79190612585565b61175a565b6040516105099190612cbb565b60405180910390f35b34801561051e57600080fd5b506105396004803603810190610534919061255c565b6117ee565b005b60007f80ac58cd000000000000000000000000000000000000000000000000000000007bffffffffffffffffffffffffffffffffffffffffffffffffffffffff1916827bffffffffffffffffffffffffffffffffffffffffffffffffffffffff1916148061060657507f5b5e139f000000000000000000000000000000000000000000000000000000007bffffffffffffffffffffffffffffffffffffffffffffffffffffffff1916827bffffffffffffffffffffffffffffffffffffffffffffffffffffffff1916145b806106165750610615826118e6565b5b9050919050565b60606000805461062c906131df565b80601f0160208091040260200160405190810160405280929190818152602001828054610658906131df565b80156106a55780601f1061067a576101008083540402835291602001916106a5565b820191906000526020600020905b81548152906001019060200180831161068857829003601f168201915b5050505050905090565b60006106ba82611950565b6106f9576040517f08c379a00000000000000000000000000000000000000000000000000000000081526004016106f090612e78565b60405180910390fd5b6004600083815260200190815260200160002060009054906101000a900473ffffffffffffffffffffffffffffffffffffffff169050919050565b600061073f82610dd6565b90508073ffffffffffffffffffffffffffffffffffffffff168373ffffffffffffffffffffffffffffffffffffffff1614156107b0576040517f08c379a00000000000000000000000000000000000000000000000000000000081526004016107a790612ed8565b60405180910390fd5b8073ffffffffffffffffffffffffffffffffffffffff166107cf6119bc565b73ffffffffffffffffffffffffffffffffffffffff1614806107fe57506107fd816107f86119bc565b61175a565b5b61083d576040517f08c379a000000000000000000000000000000000000000000000000000000000815260040161083490612df8565b60405180910390fd5b61084783836119c4565b505050565b61085d6108576119bc565b82611a7d565b61089c576040517f08c379a000000000000000000000000000000000000000000000000000000000815260040161089390612ef8565b60405180910390fd5b6108a7838383611b5b565b505050565b6000600882815481106108e8577f4e487b7100000000000000000000000000000000000000000000000000000000600052603260045260246000fd5b9060005260206000209060030201600201549050600060088381548110610938577f4e487b7100000000000000000000000000000000000000000000000000000000600052603260045260246000fd5b906000526020600020906003020160010160009054906101000a900473ffffffffffffffffffffffffffffffffffffffff169050600073ffffffffffffffffffffffffffffffffffffffff168173ffffffffffffffffffffffffffffffffffffffff1614156109dc576040517f08c379a00000000000000000000000000000000000000000000000000000000081526004016109d390612e58565b60405180910390fd5b813414610a1e576040517f08c379a0000000000000000000000000000000000000000000000000000000008152600401610a1590612d78565b60405180910390fd5b600060088481548110610a5a577f4e487b7100000000000000000000000000000000000000000000000000000000600052603260045260246000fd5b906000526020600020906003020160010160006101000a81548173ffffffffffffffffffffffffffffffffffffffff021916908373ffffffffffffffffffffffffffffffffffffffff160217905550610ab4303385611b5b565b8073ffffffffffffffffffffffffffffffffffffffff166108fc349081150290604051600060405180830381858888f19350505050158015610afa573d6000803e3d6000fd5b508073ffffffffffffffffffffffffffffffffffffffff16837fd356b8423ef89ccba8e4f1dbeccc60b41825fd97d432f2e6a6dbd11ae6ecec113385604051610b44929190612c70565b60405180910390a3505050565b610b6c83838360405180602001604052806000815250611460565b505050565b60088181548110610b8157600080fd5b90600052602060002090600302016000915090508060000154908060010160009054906101000a900473ffffffffffffffffffffffffffffffffffffffff16908060020154905083565b60606000610bd833610f16565b905060008167ffffffffffffffff811115610c1c577f4e487b7100000000000000000000000000000000000000000000000000000000600052604160045260246000fd5b604051908082528060200260200182016040528015610c5557816020015b610c42612454565b815260200190600190039081610c3a5790505b509050600080600090505b600880549050811015610dcc573373ffffffffffffffffffffffffffffffffffffffff16610c8d82610dd6565b73ffffffffffffffffffffffffffffffffffffffff161415610db95760088181548110610ce3577f4e487b7100000000000000000000000000000000000000000000000000000000600052603260045260246000fd5b9060005260206000209060030201604051806060016040529081600082015481526020016001820160009054906101000a900473ffffffffffffffffffffffffffffffffffffffff1673ffffffffffffffffffffffffffffffffffffffff1673ffffffffffffffffffffffffffffffffffffffff168152602001600282015481525050838381518110610d9f577f4e487b7100000000000000000000000000000000000000000000000000000000600052603260045260246000fd5b60200260200101819052508180610db590613242565b9250505b8080610dc490613242565b915050610c60565b5081935050505090565b6000806002600084815260200190815260200160002060009054906101000a900473ffffffffffffffffffffffffffffffffffffffff169050600073ffffffffffffffffffffffffffffffffffffffff168173ffffffffffffffffffffffffffffffffffffffff161415610e7f576040517f08c379a0000000000000000000000000000000000000000000000000000000008152600401610e7690612e38565b60405180910390fd5b80915050919050565b60078054610e95906131df565b80601f0160208091040260200160405190810160405280929190818152602001828054610ec1906131df565b8015610f0e5780601f10610ee357610100808354040283529160200191610f0e565b820191906000526020600020905b815481529060010190602001808311610ef157829003601f168201915b505050505081565b60008073ffffffffffffffffffffffffffffffffffffffff168273ffffffffffffffffffffffffffffffffffffffff161415610f87576040517f08c379a0000000000000000000000000000000000000000000000000000000008152600401610f7e90612e18565b60405180910390fd5b600360008373ffffffffffffffffffffffffffffffffffffffff1673ffffffffffffffffffffffffffffffffffffffff168152602001908152602001600020549050919050565b610fd66119bc565b73ffffffffffffffffffffffffffffffffffffffff16610ff461138e565b73ffffffffffffffffffffffffffffffffffffffff161461104a576040517f08c379a000000000000000000000000000000000000000000000000000000000815260040161104190612e98565b60405180910390fd5b6110546000611dc2565b565b6060600080600090505b60088054905081101561112e57600073ffffffffffffffffffffffffffffffffffffffff16600882815481106110bf577f4e487b7100000000000000000000000000000000000000000000000000000000600052603260045260246000fd5b906000526020600020906003020160010160009054906101000a900473ffffffffffffffffffffffffffffffffffffffff1673ffffffffffffffffffffffffffffffffffffffff161461111b57818061111790613242565b9250505b808061112690613242565b915050611060565b5060008167ffffffffffffffff811115611171577f4e487b7100000000000000000000000000000000000000000000000000000000600052604160045260246000fd5b6040519080825280602002602001820160405280156111aa57816020015b611197612454565b81526020019060019003908161118f5790505b509050600080600090505b60088054905081101561138457600073ffffffffffffffffffffffffffffffffffffffff1660088281548110611214577f4e487b7100000000000000000000000000000000000000000000000000000000600052603260045260246000fd5b906000526020600020906003020160010160009054906101000a900473ffffffffffffffffffffffffffffffffffffffff1673ffffffffffffffffffffffffffffffffffffffff1614611371576008818154811061129b577f4e487b7100000000000000000000000000000000000000000000000000000000600052603260045260246000fd5b9060005260206000209060030201604051806060016040529081600082015481526020016001820160009054906101000a900473ffffffffffffffffffffffffffffffffffffffff1673ffffffffffffffffffffffffffffffffffffffff1673ffffffffffffffffffffffffffffffffffffffff168152602001600282015481525050838381518110611357577f4e487b7100000000000000000000000000000000000000000000000000000000600052603260045260246000fd5b6020026020010181905250818061136d90613242565b9250505b808061137c90613242565b9150506111b5565b5081935050505090565b6000600660009054906101000a900473ffffffffffffffffffffffffffffffffffffffff16905090565b6060600180546113c7906131df565b80601f01602080910402602001604051908101604052809291908181526020018280546113f3906131df565b80156114405780601f1061141557610100808354040283529160200191611440565b820191906000526020600020905b81548152906001019060200180831161142357829003601f168201915b5050505050905090565b61145c6114556119bc565b8383611e88565b5050565b61147161146b6119bc565b83611a7d565b6114b0576040517f08c379a00000000000000000000000000000000000000000000000000000000081526004016114a790612ef8565b60405180910390fd5b6114bc84848484611ff5565b50505050565b60606114cd82611950565b61150c576040517f08c379a000000000000000000000000000000000000000000000000000000000815260040161150390612eb8565b60405180910390fd5b6000611516612051565b905060008151116115365760405180602001604052806000815250611561565b80611540846120e3565b604051602001611551929190612be5565b6040516020818303038152906040525b915050919050565b600081116115ac576040517f08c379a00000000000000000000000000000000000000000000000000000000081526004016115a390612cf8565b60405180910390fd5b3373ffffffffffffffffffffffffffffffffffffffff166115cc83610dd6565b73ffffffffffffffffffffffffffffffffffffffff1614611622576040517f08c379a000000000000000000000000000000000000000000000000000000000815260040161161990612f18565b60405180910390fd5b336008838154811061165d577f4e487b7100000000000000000000000000000000000000000000000000000000600052603260045260246000fd5b906000526020600020906003020160010160006101000a81548173ffffffffffffffffffffffffffffffffffffffff021916908373ffffffffffffffffffffffffffffffffffffffff16021790555080600883815481106116e7577f4e487b7100000000000000000000000000000000000000000000000000000000600052603260045260246000fd5b906000526020600020906003020160020181905550611707333084611b5b565b3373ffffffffffffffffffffffffffffffffffffffff16827fb2ba12d2566848b13548a3741edb565b69d3cbce7796959cd67431610207eb138360405161174e9190612f38565b60405180910390a35050565b6000600560008473ffffffffffffffffffffffffffffffffffffffff1673ffffffffffffffffffffffffffffffffffffffff16815260200190815260200160002060008373ffffffffffffffffffffffffffffffffffffffff1673ffffffffffffffffffffffffffffffffffffffff16815260200190815260200160002060009054906101000a900460ff16905092915050565b6117f66119bc565b73ffffffffffffffffffffffffffffffffffffffff1661181461138e565b73ffffffffffffffffffffffffffffffffffffffff161461186a576040517f08c379a000000000000000000000000000000000000000000000000000000000815260040161186190612e98565b60405180910390fd5b600073ffffffffffffffffffffffffffffffffffffffff168173ffffffffffffffffffffffffffffffffffffffff1614156118da576040517f08c379a00000000000000000000000000000000000000000000000000000000081526004016118d190612d38565b60405180910390fd5b6118e381611dc2565b50565b60007f01ffc9a7000000000000000000000000000000000000000000000000000000007bffffffffffffffffffffffffffffffffffffffffffffffffffffffff1916827bffffffffffffffffffffffffffffffffffffffffffffffffffffffff1916149050919050565b60008073ffffffffffffffffffffffffffffffffffffffff166002600084815260200190815260200160002060009054906101000a900473ffffffffffffffffffffffffffffffffffffffff1673ffffffffffffffffffffffffffffffffffffffff1614159050919050565b600033905090565b816004600083815260200190815260200160002060006101000a81548173ffffffffffffffffffffffffffffffffffffffff021916908373ffffffffffffffffffffffffffffffffffffffff160217905550808273ffffffffffffffffffffffffffffffffffffffff16611a3783610dd6565b73ffffffffffffffffffffffffffffffffffffffff167f8c5be1e5ebec7d5bd14f71427d1e84f3dd0314c0f7b2291e5b200ac8c7c3b92560405160405180910390a45050565b6000611a8882611950565b611ac7576040517f08c379a0000000000000000000000000000000000000000000000000000000008152600401611abe90612dd8565b60405180910390fd5b6000611ad283610dd6565b90508073ffffffffffffffffffffffffffffffffffffffff168473ffffffffffffffffffffffffffffffffffffffff161480611b4157508373ffffffffffffffffffffffffffffffffffffffff16611b29846106af565b73ffffffffffffffffffffffffffffffffffffffff16145b80611b525750611b51818561175a565b5b91505092915050565b8273ffffffffffffffffffffffffffffffffffffffff16611b7b82610dd6565b73ffffffffffffffffffffffffffffffffffffffff1614611bd1576040517f08c379a0000000000000000000000000000000000000000000000000000000008152600401611bc890612d58565b60405180910390fd5b600073ffffffffffffffffffffffffffffffffffffffff168273ffffffffffffffffffffffffffffffffffffffff161415611c41576040517f08c379a0000000000000000000000000000000000000000000000000000000008152600401611c3890612d98565b60405180910390fd5b611c4c838383612290565b611c576000826119c4565b6001600360008573ffffffffffffffffffffffffffffffffffffffff1673ffffffffffffffffffffffffffffffffffffffff1681526020019081526020016000206000828254611ca791906130e3565b925050819055506001600360008473ffffffffffffffffffffffffffffffffffffffff1673ffffffffffffffffffffffffffffffffffffffff1681526020019081526020016000206000828254611cfe919061305c565b92505081905550816002600083815260200190815260200160002060006101000a81548173ffffffffffffffffffffffffffffffffffffffff021916908373ffffffffffffffffffffffffffffffffffffffff160217905550808273ffffffffffffffffffffffffffffffffffffffff168473ffffffffffffffffffffffffffffffffffffffff167fddf252ad1be2c89b69c2b068fc378daa952ba7f163c4a11628f55a4df523b3ef60405160405180910390a4611dbd838383612295565b505050565b6000600660009054906101000a900473ffffffffffffffffffffffffffffffffffffffff16905081600660006101000a81548173ffffffffffffffffffffffffffffffffffffffff021916908373ffffffffffffffffffffffffffffffffffffffff1602179055508173ffffffffffffffffffffffffffffffffffffffff168173ffffffffffffffffffffffffffffffffffffffff167f8be0079c531659141344cd1fd0a4f28419497f9722a3daafe3b4186f6b6457e060405160405180910390a35050565b8173ffffffffffffffffffffffffffffffffffffffff168373ffffffffffffffffffffffffffffffffffffffff161415611ef7576040517f08c379a0000000000000000000000000000000000000000000000000000000008152600401611eee90612db8565b60405180910390fd5b80600560008573ffffffffffffffffffffffffffffffffffffffff1673ffffffffffffffffffffffffffffffffffffffff16815260200190815260200160002060008473ffffffffffffffffffffffffffffffffffffffff1673ffffffffffffffffffffffffffffffffffffffff16815260200190815260200160002060006101000a81548160ff0219169083151502179055508173ffffffffffffffffffffffffffffffffffffffff168373ffffffffffffffffffffffffffffffffffffffff167f17307eab39ab6107e8899845ad3d59bd9653f200f220920489ca2b5937696c3183604051611fe89190612cbb565b60405180910390a3505050565b612000848484611b5b565b61200c8484848461229a565b61204b576040517f08c379a000000000000000000000000000000000000000000000000000000000815260040161204290612d18565b60405180910390fd5b50505050565b606060078054612060906131df565b80601f016020809104026020016040519081016040528092919081815260200182805461208c906131df565b80156120d95780601f106120ae576101008083540402835291602001916120d9565b820191906000526020600020905b8154815290600101906020018083116120bc57829003601f168201915b5050505050905090565b6060600082141561212b576040518060400160405280600181526020017f3000000000000000000000000000000000000000000000000000000000000000815250905061228b565b600082905060005b6000821461215d57808061214690613242565b915050600a8261215691906130b2565b9150612133565b60008167ffffffffffffffff81111561219f577f4e487b7100000000000000000000000000000000000000000000000000000000600052604160045260246000fd5b6040519080825280601f01601f1916602001820160405280156121d15781602001600182028036833780820191505090505b5090505b60008514612284576001826121ea91906130e3565b9150600a856121f9919061328b565b6030612205919061305c565b60f81b818381518110612241577f4e487b7100000000000000000000000000000000000000000000000000000000600052603260045260246000fd5b60200101907effffffffffffffffffffffffffffffffffffffffffffffffffffffffffffff1916908160001a905350600a8561227d91906130b2565b94506121d5565b8093505050505b919050565b505050565b505050565b60006122bb8473ffffffffffffffffffffffffffffffffffffffff16612431565b15612424578373ffffffffffffffffffffffffffffffffffffffff1663150b7a026122e46119bc565b8786866040518563ffffffff1660e01b81526004016123069493929190612c24565b602060405180830381600087803b15801561232057600080fd5b505af192505050801561235157506040513d601f19601f8201168201806040525081019061234e919061272c565b60015b6123d4573d8060008114612381576040519150601f19603f3d011682016040523d82523d6000602084013e612386565b606091505b506000815114156123cc576040517f08c379a00000000000000000000000000000000000000000000000000000000081526004016123c390612d18565b60405180910390fd5b805181602001fd5b63150b7a0260e01b7bffffffffffffffffffffffffffffffffffffffffffffffffffffffff1916817bffffffffffffffffffffffffffffffffffffffffffffffffffffffff191614915050612429565b600190505b949350505050565b6000808273ffffffffffffffffffffffffffffffffffffffff163b119050919050565b604051806060016040528060008152602001600073ffffffffffffffffffffffffffffffffffffffff168152602001600081525090565b600061249e61249984612faf565b612f8a565b9050828152602081018484840111156124b657600080fd5b6124c184828561319d565b509392505050565b6000813590506124d88161387f565b92915050565b6000813590506124ed81613896565b92915050565b600081359050612502816138ad565b92915050565b600081519050612517816138ad565b92915050565b600082601f83011261252e57600080fd5b813561253e84826020860161248b565b91505092915050565b600081359050612556816138c4565b92915050565b60006020828403121561256e57600080fd5b600061257c848285016124c9565b91505092915050565b6000806040838503121561259857600080fd5b60006125a6858286016124c9565b92505060206125b7858286016124c9565b9150509250929050565b6000806000606084860312156125d657600080fd5b60006125e4868287016124c9565b93505060206125f5868287016124c9565b925050604061260686828701612547565b9150509250925092565b6000806000806080858703121561262657600080fd5b6000612634878288016124c9565b9450506020612645878288016124c9565b935050604061265687828801612547565b925050606085013567ffffffffffffffff81111561267357600080fd5b61267f8782880161251d565b91505092959194509250565b6000806040838503121561269e57600080fd5b60006126ac858286016124c9565b92505060206126bd858286016124de565b9150509250929050565b600080604083850312156126da57600080fd5b60006126e8858286016124c9565b92505060206126f985828601612547565b9150509250929050565b60006020828403121561271557600080fd5b6000612723848285016124f3565b91505092915050565b60006020828403121561273e57600080fd5b600061274c84828501612508565b91505092915050565b60006020828403121561276757600080fd5b600061277584828501612547565b91505092915050565b6000806040838503121561279157600080fd5b600061279f85828601612547565b92505060206127b085828601612547565b9150509250929050565b60006127c68383612b85565b60608301905092915050565b6127db81613129565b82525050565b6127ea81613129565b82525050565b6127f981613117565b82525050565b600061280a82612ff0565b612814818561301e565b935061281f83612fe0565b8060005b8381101561285057815161283788826127ba565b975061284283613011565b925050600181019050612823565b5085935050505092915050565b6128668161313b565b82525050565b600061287782612ffb565b612881818561302f565b93506128918185602086016131ac565b61289a81613378565b840191505092915050565b60006128b082613006565b6128ba8185613040565b93506128ca8185602086016131ac565b6128d381613378565b840191505092915050565b60006128e982613006565b6128f38185613051565b93506129038185602086016131ac565b80840191505092915050565b600061291c601f83613040565b915061292782613389565b602082019050919050565b600061293f603283613040565b915061294a826133b2565b604082019050919050565b6000612962602683613040565b915061296d82613401565b604082019050919050565b6000612985602583613040565b915061299082613450565b604082019050919050565b60006129a8603683613040565b91506129b38261349f565b604082019050919050565b60006129cb602483613040565b91506129d6826134ee565b604082019050919050565b60006129ee601983613040565b91506129f98261353d565b602082019050919050565b6000612a11602c83613040565b9150612a1c82613566565b604082019050919050565b6000612a34603883613040565b9150612a3f826135b5565b604082019050919050565b6000612a57602a83613040565b9150612a6282613604565b604082019050919050565b6000612a7a602983613040565b9150612a8582613653565b604082019050919050565b6000612a9d601283613040565b9150612aa8826136a2565b602082019050919050565b6000612ac0602c83613040565b9150612acb826136cb565b604082019050919050565b6000612ae3602083613040565b9150612aee8261371a565b602082019050919050565b6000612b06602f83613040565b9150612b1182613743565b604082019050919050565b6000612b29602183613040565b9150612b3482613792565b604082019050919050565b6000612b4c603183613040565b9150612b57826137e1565b604082019050919050565b6000612b6f602383613040565b9150612b7a82613830565b604082019050919050565b606082016000820151612b9b6000850182612bc7565b506020820151612bae60208501826127d2565b506040820151612bc16040850182612bc7565b50505050565b612bd081613193565b82525050565b612bdf81613193565b82525050565b6000612bf182856128de565b9150612bfd82846128de565b91508190509392505050565b6000602082019050612c1e60008301846127f0565b92915050565b6000608082019050612c3960008301876127f0565b612c4660208301866127f0565b612c536040830185612bd6565b8181036060830152612c65818461286c565b905095945050505050565b6000604082019050612c8560008301856127f0565b612c926020830184612bd6565b9392505050565b60006020820190508181036000830152612cb381846127ff565b905092915050565b6000602082019050612cd0600083018461285d565b92915050565b60006020820190508181036000830152612cf081846128a5565b905092915050565b60006020820190508181036000830152612d118161290f565b9050919050565b60006020820190508181036000830152612d3181612932565b9050919050565b60006020820190508181036000830152612d5181612955565b9050919050565b60006020820190508181036000830152612d7181612978565b9050919050565b60006020820190508181036000830152612d918161299b565b9050919050565b60006020820190508181036000830152612db1816129be565b9050919050565b60006020820190508181036000830152612dd1816129e1565b9050919050565b60006020820190508181036000830152612df181612a04565b9050919050565b60006020820190508181036000830152612e1181612a27565b9050919050565b60006020820190508181036000830152612e3181612a4a565b9050919050565b60006020820190508181036000830152612e5181612a6d565b9050919050565b60006020820190508181036000830152612e7181612a90565b9050919050565b60006020820190508181036000830152612e9181612ab3565b9050919050565b60006020820190508181036000830152612eb181612ad6565b9050919050565b60006020820190508181036000830152612ed181612af9565b9050919050565b60006020820190508181036000830152612ef181612b1c565b9050919050565b60006020820190508181036000830152612f1181612b3f565b9050919050565b60006020820190508181036000830152612f3181612b62565b9050919050565b6000602082019050612f4d6000830184612bd6565b92915050565b6000606082019050612f686000830186612bd6565b612f7560208301856127e1565b612f826040830184612bd6565b949350505050565b6000612f94612fa5565b9050612fa08282613211565b919050565b6000604051905090565b600067ffffffffffffffff821115612fca57612fc9613349565b5b612fd382613378565b9050602081019050919050565b6000819050602082019050919050565b600081519050919050565b600081519050919050565b600081519050919050565b6000602082019050919050565b600082825260208201905092915050565b600082825260208201905092915050565b600082825260208201905092915050565b600081905092915050565b600061306782613193565b915061307283613193565b9250827fffffffffffffffffffffffffffffffffffffffffffffffffffffffffffffffff038211156130a7576130a66132bc565b5b828201905092915050565b60006130bd82613193565b91506130c883613193565b9250826130d8576130d76132eb565b5b828204905092915050565b60006130ee82613193565b91506130f983613193565b92508282101561310c5761310b6132bc565b5b828203905092915050565b600061312282613173565b9050919050565b600061313482613173565b9050919050565b60008115159050919050565b60007fffffffff0000000000000000000000000000000000000000000000000000000082169050919050565b600073ffffffffffffffffffffffffffffffffffffffff82169050919050565b6000819050919050565b82818337600083830152505050565b60005b838110156131ca5780820151818401526020810190506131af565b838111156131d9576000848401525b50505050565b600060028204905060018216806131f757607f821691505b6020821081141561320b5761320a61331a565b5b50919050565b61321a82613378565b810181811067ffffffffffffffff8211171561323957613238613349565b5b80604052505050565b600061324d82613193565b91507fffffffffffffffffffffffffffffffffffffffffffffffffffffffffffffffff8214156132805761327f6132bc565b5b600182019050919050565b600061329682613193565b91506132a183613193565b9250826132b1576132b06132eb565b5b828206905092915050565b7f4e487b7100000000000000000000000000000000000000000000000000000000600052601160045260246000fd5b7f4e487b7100000000000000000000000000000000000000000000000000000000600052601260045260246000fd5b7f4e487b7100000000000000000000000000000000000000000000000000000000600052602260045260246000fd5b7f4e487b7100000000000000000000000000000000000000000000000000000000600052604160045260246000fd5b6000601f19601f8301169050919050565b7f5072696365206d7573742062652067726561746572207468616e207a65726f00600082015250565b7f4552433732313a207472616e7366657220746f206e6f6e20455243373231526560008201527f63656976657220696d706c656d656e7465720000000000000000000000000000602082015250565b7f4f776e61626c653a206e6577206f776e657220697320746865207a65726f206160008201527f6464726573730000000000000000000000000000000000000000000000000000602082015250565b7f4552433732313a207472616e736665722066726f6d20696e636f72726563742060008201527f6f776e6572000000000000000000000000000000000000000000000000000000602082015250565b7f506c656173652073656e642074686520636f727265637420707269636520746f60008201527f20636f6d706c6574652074686520707572636861736500000000000000000000602082015250565b7f4552433732313a207472616e7366657220746f20746865207a65726f2061646460008201527f7265737300000000000000000000000000000000000000000000000000000000602082015250565b7f4552433732313a20617070726f766520746f2063616c6c657200000000000000600082015250565b7f4552433732313a206f70657261746f7220717565727920666f72206e6f6e657860008201527f697374656e7420746f6b656e0000000000000000000000000000000000000000602082015250565b7f4552433732313a20617070726f76652063616c6c6572206973206e6f74206f7760008201527f6e6572206e6f7220617070726f76656420666f7220616c6c0000000000000000602082015250565b7f4552433732313a2062616c616e636520717565727920666f7220746865207a6560008201527f726f206164647265737300000000000000000000000000000000000000000000602082015250565b7f4552433732313a206f776e657220717565727920666f72206e6f6e657869737460008201527f656e7420746f6b656e0000000000000000000000000000000000000000000000602082015250565b7f546f6b656e206e6f7420666f722073616c650000000000000000000000000000600082015250565b7f4552433732313a20617070726f76656420717565727920666f72206e6f6e657860008201527f697374656e7420746f6b656e0000000000000000000000000000000000000000602082015250565b7f4f776e61626c653a2063616c6c6572206973206e6f7420746865206f776e6572600082015250565b7f4552433732314d657461646174613a2055524920717565727920666f72206e6f60008201527f6e6578697374656e7420746f6b656e0000000000000000000000000000000000602082015250565b7f4552433732313a20617070726f76616c20746f2063757272656e74206f776e6560008201527f7200000000000000000000000000000000000000000000000000000000000000602082015250565b7f4552433732313a207472616e736665722063616c6c6572206973206e6f74206f60008201527f776e6572206e6f7220617070726f766564000000000000000000000000000000602082015250565b7f4f6e6c7920746865206f776e65722063616e20726573656c6c2074686520746f60008201527f6b656e0000000000000000000000000000000000000000000000000000000000602082015250565b61388881613117565b811461389357600080fd5b50565b61389f8161313b565b81146138aa57600080fd5b50565b6138b681613147565b81146138c157600080fd5b50565b6138cd81613193565b81146138d857600080fd5b5056fea2646970667358221220268893e9c8be629fad31cd868574066a78c1246616e2fd30e608a85e4463de8564736f6c6343000804003368747470733a2f2f676174657761792e70696e6174612e636c6f75642f697066732f",
  "linkReferences": {},
  "deployedLinkReferences": {}
}