{
  "_format": "hh-sol-artifact-1",
  "contractName": "MusicNFTMarketplace",
  "sourceName": "src/backend/contracts/MusicNFTMarketplace.sol",
  "abi": [
    {
      "inputs": [
        {
          "internalType": "uint256[]",
          "name": "_prices",
          "type": "uint256[]"
        }
      ],
      "stateMutability": "payable",
      "type": "constructor"
    },
    {
      "anonymous": false,
      "inputs": [
        {
          "indexed": true,
          "internalType": "address",
          "name": "owner",
          "type": "address"
        },
        {
          "indexed": true,
          "internalType": "address",
          "name": "approved",
          "type": "address"
        },
        {
          "indexed": true,
          "internalType": "uint256",
          "name": "tokenId",
          "type": "uint256"
        }
      ],
      "name": "Approval",
      "type": "event"
    },
    {
      "anonymous": false,
      "inputs": [
        {
          "indexed": true,
          "internalType": "address",
          "name": "owner",
          "type": "address"
        },
        {
          "indexed": true,
          "internalType": "address",
          "name": "operator",
          "type": "address"
        },
        {
          "indexed": false,
          "internalType": "bool",
          "name": "approved",
          "type": "bool"
        }
      ],
      "name": "ApprovalForAll",
      "type": "event"
    },
    {
      "anonymous": false,
      "inputs": [
        {
          "indexed": true,
          "internalType": "uint256",
          "name": "tokenId",
          "type": "uint256"
        },
        {
          "indexed": true,
          "internalType": "address",
          "name": "seller",
          "type": "address"
        },
        {
          "indexed": false,
          "internalType": "address",
          "name": "buyer",
          "type": "address"
        },
        {
          "indexed": false,
          "internalType": "uint256",
          "name": "price",
          "type": "uint256"
        }
      ],
      "name": "MarketItemBought",
      "type": "event"
    },
    {
      "anonymous": false,
      "inputs": [
        {
          "indexed": true,
          "internalType": "uint256",
          "name": "tokenId",
          "type": "uint256"
        },
        {
          "indexed": true,
          "internalType": "address",
          "name": "seller",
          "type": "address"
        },
        {
          "indexed": false,
          "internalType": "uint256",
          "name": "price",
          "type": "uint256"
        }
      ],
      "name": "MarketItemRelisted",
      "type": "event"
    },
    {
      "anonymous": false,
      "inputs": [
        {
          "indexed": true,
          "internalType": "address",
          "name": "previousOwner",
          "type": "address"
        },
        {
          "indexed": true,
          "internalType": "address",
          "name": "newOwner",
          "type": "address"
        }
      ],
      "name": "OwnershipTransferred",
      "type": "event"
    },
    {
      "anonymous": false,
      "inputs": [
        {
          "indexed": true,
          "internalType": "address",
          "name": "from",
          "type": "address"
        },
        {
          "indexed": true,
          "internalType": "address",
          "name": "to",
          "type": "address"
        },
        {
          "indexed": true,
          "internalType": "uint256",
          "name": "tokenId",
          "type": "uint256"
        }
      ],
      "name": "Transfer",
      "type": "event"
    },
    {
      "inputs": [
        {
          "internalType": "address",
          "name": "to",
          "type": "address"
        },
        {
          "internalType": "uint256",
          "name": "tokenId",
          "type": "uint256"
        }
      ],
      "name": "approve",
      "outputs": [],
      "stateMutability": "nonpayable",
      "type": "function"
    },
    {
      "inputs": [
        {
          "internalType": "address",
          "name": "owner",
          "type": "address"
        }
      ],
      "name": "balanceOf",
      "outputs": [
        {
          "internalType": "uint256",
          "name": "",
          "type": "uint256"
        }
      ],
      "stateMutability": "view",
      "type": "function"
    },
    {
      "inputs": [],
      "name": "baseURI",
      "outputs": [
        {
          "internalType": "string",
          "name": "",
          "type": "string"
        }
      ],
      "stateMutability": "view",
      "type": "function"
    },
    {
      "inputs": [
        {
          "internalType": "uint256",
          "name": "_tokenId",
          "type": "uint256"
        }
      ],
      "name": "buyToken",
      "outputs": [],
      "stateMutability": "payable",
      "type": "function"
    },
    {
      "inputs": [],
      "name": "getAllUnsoldTokens",
      "outputs": [
        {
          "components": [
            {
              "internalType": "uint256",
              "name": "tokenId",
              "type": "uint256"
            },
            {
              "internalType": "address payable",
              "name": "seller",
              "type": "address"
            },
            {
              "internalType": "uint256",
              "name": "price",
              "type": "uint256"
            }
          ],
          "internalType": "struct MusicNFTMarketplace.MarketItem[]",
          "name": "",
          "type": "tuple[]"
        }
      ],
      "stateMutability": "view",
      "type": "function"
    },
    {
      "inputs": [
        {
          "internalType": "uint256",
          "name": "tokenId",
          "type": "uint256"
        }
      ],
      "name": "getApproved",
      "outputs": [
        {
          "internalType": "address",
          "name": "",
          "type": "address"
        }
      ],
      "stateMutability": "view",
      "type": "function"
    },
    {
      "inputs": [],
      "name": "getMyTokens",
      "outputs": [
        {
          "components": [
            {
              "internalType": "uint256",
              "name": "tokenId",
              "type": "uint256"
            },
            {
              "internalType": "address payable",
              "name": "seller",
              "type": "address"
            },
            {
              "internalType": "uint256",
              "name": "price",
              "type": "uint256"
            }
          ],
          "internalType": "struct MusicNFTMarketplace.MarketItem[]",
          "name": "",
          "type": "tuple[]"
        }
      ],
      "stateMutability": "view",
      "type": "function"
    },
    {
      "inputs": [
        {
          "internalType": "address",
          "name": "owner",
          "type": "address"
        },
        {
          "internalType": "address",
          "name": "operator",
          "type": "address"
        }
      ],
      "name": "isApprovedForAll",
      "outputs": [
        {
          "internalType": "bool",
          "name": "",
          "type": "bool"
        }
      ],
      "stateMutability": "view",
      "type": "function"
    },
    {
      "inputs": [
        {
          "internalType": "uint256",
          "name": "",
          "type": "uint256"
        }
      ],
      "name": "marketItems",
      "outputs": [
        {
          "internalType": "uint256",
          "name": "tokenId",
          "type": "uint256"
        },
        {
          "internalType": "address payable",
          "name": "seller",
          "type": "address"
        },
        {
          "internalType": "uint256",
          "name": "price",
          "type": "uint256"
        }
      ],
      "stateMutability": "view",
      "type": "function"
    },
    {
      "inputs": [],
      "name": "name",
      "outputs": [
        {
          "internalType": "string",
          "name": "",
          "type": "string"
        }
      ],
      "stateMutability": "view",
      "type": "function"
    },
    {
      "inputs": [],
      "name": "owner",
      "outputs": [
        {
          "internalType": "address",
          "name": "",
          "type": "address"
        }
      ],
      "stateMutability": "view",
      "type": "function"
    },
    {
      "inputs": [
        {
          "internalType": "uint256",
          "name": "tokenId",
          "type": "uint256"
        }
      ],
      "name": "ownerOf",
      "outputs": [
        {
          "internalType": "address",
          "name": "",
          "type": "address"
        }
      ],
      "stateMutability": "view",
      "type": "function"
    },
    {
      "inputs": [],
      "name": "renounceOwnership",
      "outputs": [],
      "stateMutability": "nonpayable",
      "type": "function"
    },
    {
      "inputs": [
        {
          "internalType": "uint256",
          "name": "_tokenId",
          "type": "uint256"
        },
        {
          "internalType": "uint256",
          "name": "_price",
          "type": "uint256"
        }
      ],
      "name": "resellToken",
      "outputs": [],
      "stateMutability": "nonpayable",
      "type": "function"
    },
    {
      "inputs": [
        {
          "internalType": "address",
          "name": "from",
          "type": "address"
        },
        {
          "internalType": "address",
          "name": "to",
          "type": "address"
        },
        {
          "internalType": "uint256",
          "name": "tokenId",
          "type": "uint256"
        }
      ],
      "name": "safeTransferFrom",
      "outputs": [],
      "stateMutability": "nonpayable",
      "type": "function"
    },
    {
      "inputs": [
        {
          "internalType": "address",
          "name": "from",
          "type": "address"
        },
        {
          "internalType": "address",
          "name": "to",
          "type": "address"
        },
        {
          "internalType": "uint256",
          "name": "tokenId",
          "type": "uint256"
        },
        {
          "internalType": "bytes",
          "name": "_data",
          "type": "bytes"
        }
      ],
      "name": "safeTransferFrom",
      "outputs": [],
      "stateMutability": "nonpayable",
      "type": "function"
    },
    {
      "inputs": [
        {
          "internalType": "address",
          "name": "operator",
          "type": "address"
        },
        {
          "internalType": "bool",
          "name": "approved",
          "type": "bool"
        }
      ],
      "name": "setApprovalForAll",
      "outputs": [],
      "stateMutability": "nonpayable",
      "type": "function"
    },
    {
      "inputs": [
        {
          "internalType": "bytes4",
          "name": "interfaceId",
          "type": "bytes4"
        }
      ],
      "name": "supportsInterface",
      "outputs": [
        {
          "internalType": "bool",
          "name": "",
          "type": "bool"
        }
      ],
      "stateMutability": "view",
      "type": "function"
    },
    {
      "inputs": [],
      "name": "symbol",
      "outputs": [
        {
          "internalType": "string",
          "name": "",
          "type": "string"
        }
      ],
      "stateMutability": "view",
      "type": "function"
    },
    {
      "inputs": [
        {
          "internalType": "uint256",
          "name": "tokenId",
          "type": "uint256"
        }
      ],
      "name": "tokenURI",
      "outputs": [
        {
          "internalType": "string",
          "name": "",
          "type": "string"
        }
      ],
      "stateMutability": "view",
      "type": "function"
    },
    {
      "inputs": [
        {
          "internalType": "address",
          "name": "from",
          "type": "address"
        },
        {
          "internalType": "address",
          "name": "to",
          "type": "address"
        },
        {
          "internalType": "uint256",
          "name": "tokenId",
          "type": "uint256"
        }
      ],
      "name": "transferFrom",
      "outputs": [],
      "stateMutability": "nonpayable",
      "type": "function"
    },
    {
      "inputs": [
        {
          "internalType": "address",
          "name": "newOwner",
          "type": "address"
        }
      ],
      "name": "transferOwnership",
      "outputs": [],
      "stateMutability": "nonpayable",
      "type": "function"
    }
  ],
  "bytecode": "0x6080604052604051806060016040528060228152602001620043cc60229139600790805190602001906200003592919062000626565b50604051620043ee380380620043ee83398181016040528101906200005b91906200078f565b6040518060400160405280600681526020017f44417070466900000000000000000000000000000000000000000000000000008152506040518060400160405280600481526020017f44415050000000000000000000000000000000000000000000000000000000008152508160009080519060200190620000df92919062000626565b508060019080519060200190620000f892919062000626565b5050506200011b6200010f620002e860201b60201c565b620002f060201b60201c565b60005b60078160ff161015620002e0576000828260ff16815181106200016a577f4e487b7100000000000000000000000000000000000000000000000000000000600052603260045260246000fd5b602002602001015111620001b5576040517f08c379a0000000000000000000000000000000000000000000000000000000008152600401620001ac906200088d565b60405180910390fd5b620001ca308260ff16620003b660201b60201c565b600860405180606001604052808360ff1681526020013373ffffffffffffffffffffffffffffffffffffffff168152602001848460ff168151811062000239577f4e487b7100000000000000000000000000000000000000000000000000000000600052603260045260246000fd5b602002602001015181525090806001815401808255809150506001900390600052602060002090600302016000909190919091506000820151816000015560208201518160010160006101000a81548173ffffffffffffffffffffffffffffffffffffffff021916908373ffffffffffffffffffffffffffffffffffffffff1602179055506040820151816002015550508080620002d790620009f8565b9150506200011e565b505062000b5a565b600033905090565b6000600660009054906101000a900473ffffffffffffffffffffffffffffffffffffffff16905081600660006101000a81548173ffffffffffffffffffffffffffffffffffffffff021916908373ffffffffffffffffffffffffffffffffffffffff1602179055508173ffffffffffffffffffffffffffffffffffffffff168173ffffffffffffffffffffffffffffffffffffffff167f8be0079c531659141344cd1fd0a4f28419497f9722a3daafe3b4186f6b6457e060405160405180910390a35050565b600073ffffffffffffffffffffffffffffffffffffffff168273ffffffffffffffffffffffffffffffffffffffff16141562000429576040517f08c379a000000000000000000000000000000000000000000000000000000000815260040162000420906200086b565b60405180910390fd5b6200043a81620005b060201b60201c565b156200047d576040517f08c379a0000000000000000000000000000000000000000000000000000000008152600401620004749062000849565b60405180910390fd5b62000491600083836200061c60201b60201c565b6001600360008473ffffffffffffffffffffffffffffffffffffffff1673ffffffffffffffffffffffffffffffffffffffff1681526020019081526020016000206000828254620004e3919062000918565b92505081905550816002600083815260200190815260200160002060006101000a81548173ffffffffffffffffffffffffffffffffffffffff021916908373ffffffffffffffffffffffffffffffffffffffff160217905550808273ffffffffffffffffffffffffffffffffffffffff16600073ffffffffffffffffffffffffffffffffffffffff167fddf252ad1be2c89b69c2b068fc378daa952ba7f163c4a11628f55a4df523b3ef60405160405180910390a4620005ac600083836200062160201b60201c565b5050565b60008073ffffffffffffffffffffffffffffffffffffffff166002600084815260200190815260200160002060009054906101000a900473ffffffffffffffffffffffffffffffffffffffff1673ffffffffffffffffffffffffffffffffffffffff1614159050919050565b505050565b505050565b82805462000634906200098c565b90600052602060002090601f016020900481019282620006585760008555620006a4565b82601f106200067357805160ff1916838001178555620006a4565b82800160010185558215620006a4579182015b82811115620006a357825182559160200191906001019062000686565b5b509050620006b39190620006b7565b5090565b5b80821115620006d2576000816000905550600101620006b8565b5090565b6000620006ed620006e784620008d8565b620008af565b905080838252602082019050828560208602820111156200070d57600080fd5b60005b8581101562000741578162000726888262000778565b84526020840193506020830192505060018101905062000710565b5050509392505050565b600082601f8301126200075d57600080fd5b81516200076f848260208601620006d6565b91505092915050565b600081519050620007898162000b40565b92915050565b600060208284031215620007a257600080fd5b600082015167ffffffffffffffff811115620007bd57600080fd5b620007cb848285016200074b565b91505092915050565b6000620007e3601c8362000907565b9150620007f08262000ac5565b602082019050919050565b60006200080a60208362000907565b9150620008178262000aee565b602082019050919050565b600062000831601c8362000907565b91506200083e8262000b17565b602082019050919050565b600060208201905081810360008301526200086481620007d4565b9050919050565b600060208201905081810360008301526200088681620007fb565b9050919050565b60006020820190508181036000830152620008a88162000822565b9050919050565b6000620008bb620008ce565b9050620008c98282620009c2565b919050565b6000604051905090565b600067ffffffffffffffff821115620008f657620008f562000a85565b5b602082029050602081019050919050565b600082825260208201905092915050565b6000620009258262000975565b9150620009328362000975565b9250827fffffffffffffffffffffffffffffffffffffffffffffffffffffffffffffffff038211156200096a576200096962000a27565b5b828201905092915050565b6000819050919050565b600060ff82169050919050565b60006002820490506001821680620009a557607f821691505b60208210811415620009bc57620009bb62000a56565b5b50919050565b620009cd8262000ab4565b810181811067ffffffffffffffff82111715620009ef57620009ee62000a85565b5b80604052505050565b600062000a05826200097f565b915060ff82141562000a1c5762000a1b62000a27565b5b600182019050919050565b7f4e487b7100000000000000000000000000000000000000000000000000000000600052601160045260246000fd5b7f4e487b7100000000000000000000000000000000000000000000000000000000600052602260045260246000fd5b7f4e487b7100000000000000000000000000000000000000000000000000000000600052604160045260246000fd5b6000601f19601f8301169050919050565b7f4552433732313a20746f6b656e20616c7265616479206d696e74656400000000600082015250565b7f4552433732313a206d696e7420746f20746865207a65726f2061646472657373600082015250565b7f5072696365206d7573742062652067726561746572207468616e203000000000600082015250565b62000b4b8162000975565b811462000b5757600080fd5b50565b6138628062000b6a6000396000f3fe6080604052600436106101355760003560e01c806370a08231116100ab578063a22cb4651161006f578063a22cb4651461041d578063b88d4fde14610446578063c87b56dd1461046f578063e219fc75146104ac578063e985e9c5146104d5578063f2fde38b1461051257610135565b806370a0823114610348578063715018a614610385578063767dd0761461039c5780638da5cb5b146103c757806395d89b41146103f257610135565b80632d296bf1116100fd5780632d296bf11461023157806342842e0e1461024d57806351f28e14146102765780635b3b136a146102b55780636352211e146102e05780636c0360eb1461031d57610135565b806301ffc9a71461013a57806306fdde0314610177578063081812fc146101a2578063095ea7b3146101df57806323b872dd14610208575b600080fd5b34801561014657600080fd5b50610161600480360381019061015c91906126c0565b61053b565b60405161016e9190612c55565b60405180910390f35b34801561018357600080fd5b5061018c61061d565b6040516101999190612c70565b60405180910390f35b3480156101ae57600080fd5b506101c960048036038101906101c49190612712565b6106af565b6040516101d69190612ba3565b60405180910390f35b3480156101eb57600080fd5b5061020660048036038101906102019190612684565b610734565b005b34801561021457600080fd5b5061022f600480360381019061022a919061257e565b61084c565b005b61024b60048036038101906102469190612712565b6108ac565b005b34801561025957600080fd5b50610274600480360381019061026f919061257e565b610b51565b005b34801561028257600080fd5b5061029d60048036038101906102989190612712565b610b71565b6040516102ac93929190612ecd565b60405180910390f35b3480156102c157600080fd5b506102ca610bcb565b6040516102d79190612c33565b60405180910390f35b3480156102ec57600080fd5b5061030760048036038101906103029190612712565b610dd6565b6040516103149190612ba3565b60405180910390f35b34801561032957600080fd5b50610332610e88565b60405161033f9190612c70565b60405180910390f35b34801561035457600080fd5b5061036f600480360381019061036a9190612519565b610f16565b60405161037c9190612eb2565b60405180910390f35b34801561039157600080fd5b5061039a610fce565b005b3480156103a857600080fd5b506103b1611056565b6040516103be9190612c33565b60405180910390f35b3480156103d357600080fd5b506103dc61138e565b6040516103e99190612ba3565b60405180910390f35b3480156103fe57600080fd5b506104076113b8565b6040516104149190612c70565b60405180910390f35b34801561042957600080fd5b50610444600480360381019061043f9190612648565b61144a565b005b34801561045257600080fd5b5061046d600480360381019061046891906125cd565b611460565b005b34801561047b57600080fd5b5061049660048036038101906104919190612712565b6114c2565b6040516104a39190612c70565b60405180910390f35b3480156104b857600080fd5b506104d360048036038101906104ce919061273b565b611569565b005b3480156104e157600080fd5b506104fc60048036038101906104f79190612542565b611717565b6040516105099190612c55565b60405180910390f35b34801561051e57600080fd5b5061053960048036038101906105349190612519565b6117ab565b005b60007f80ac58cd000000000000000000000000000000000000000000000000000000007bffffffffffffffffffffffffffffffffffffffffffffffffffffffff1916827bffffffffffffffffffffffffffffffffffffffffffffffffffffffff1916148061060657507f5b5e139f000000000000000000000000000000000000000000000000000000007bffffffffffffffffffffffffffffffffffffffffffffffffffffffff1916827bffffffffffffffffffffffffffffffffffffffffffffffffffffffff1916145b806106165750610615826118a3565b5b9050919050565b60606000805461062c90613159565b80601f016020809104026020016040519081016040528092919081815260200182805461065890613159565b80156106a55780601f1061067a576101008083540402835291602001916106a5565b820191906000526020600020905b81548152906001019060200180831161068857829003601f168201915b5050505050905090565b60006106ba8261190d565b6106f9576040517f08c379a00000000000000000000000000000000000000000000000000000000081526004016106f090612df2565b60405180910390fd5b6004600083815260200190815260200160002060009054906101000a900473ffffffffffffffffffffffffffffffffffffffff169050919050565b600061073f82610dd6565b90508073ffffffffffffffffffffffffffffffffffffffff168373ffffffffffffffffffffffffffffffffffffffff1614156107b0576040517f08c379a00000000000000000000000000000000000000000000000000000000081526004016107a790612e52565b60405180910390fd5b8073ffffffffffffffffffffffffffffffffffffffff166107cf611979565b73ffffffffffffffffffffffffffffffffffffffff1614806107fe57506107fd816107f8611979565b611717565b5b61083d576040517f08c379a000000000000000000000000000000000000000000000000000000000815260040161083490612d72565b60405180910390fd5b6108478383611981565b505050565b61085d610857611979565b82611a3a565b61089c576040517f08c379a000000000000000000000000000000000000000000000000000000000815260040161089390612e72565b60405180910390fd5b6108a7838383611b18565b505050565b6000600882815481106108e8577f4e487b7100000000000000000000000000000000000000000000000000000000600052603260045260246000fd5b9060005260206000209060030201600201549050600060088381548110610938577f4e487b7100000000000000000000000000000000000000000000000000000000600052603260045260246000fd5b906000526020600020906003020160010160009054906101000a900473ffffffffffffffffffffffffffffffffffffffff169050600073ffffffffffffffffffffffffffffffffffffffff168173ffffffffffffffffffffffffffffffffffffffff1614156109dc576040517f08c379a00000000000000000000000000000000000000000000000000000000081526004016109d390612dd2565b60405180910390fd5b813414610a1e576040517f08c379a0000000000000000000000000000000000000000000000000000000008152600401610a1590612cf2565b60405180910390fd5b600060088481548110610a5a577f4e487b7100000000000000000000000000000000000000000000000000000000600052603260045260246000fd5b906000526020600020906003020160010160006101000a81548173ffffffffffffffffffffffffffffffffffffffff021916908373ffffffffffffffffffffffffffffffffffffffff160217905550610ab4303385611b18565b8073ffffffffffffffffffffffffffffffffffffffff166108fc349081150290604051600060405180830381858888f19350505050158015610afa573d6000803e3d6000fd5b508073ffffffffffffffffffffffffffffffffffffffff16837fd356b8423ef89ccba8e4f1dbeccc60b41825fd97d432f2e6a6dbd11ae6ecec113385604051610b44929190612c0a565b60405180910390a3505050565b610b6c83838360405180602001604052806000815250611460565b505050565b60088181548110610b8157600080fd5b90600052602060002090600302016000915090508060000154908060010160009054906101000a900473ffffffffffffffffffffffffffffffffffffffff16908060020154905083565b60606000610bd833610f16565b905060008167ffffffffffffffff811115610c1c577f4e487b7100000000000000000000000000000000000000000000000000000000600052604160045260246000fd5b604051908082528060200260200182016040528015610c5557816020015b610c42612411565b815260200190600190039081610c3a5790505b509050600080600090505b600880549050811015610dcc573373ffffffffffffffffffffffffffffffffffffffff16610c8d82610dd6565b73ffffffffffffffffffffffffffffffffffffffff161415610db95760088181548110610ce3577f4e487b7100000000000000000000000000000000000000000000000000000000600052603260045260246000fd5b9060005260206000209060030201604051806060016040529081600082015481526020016001820160009054906101000a900473ffffffffffffffffffffffffffffffffffffffff1673ffffffffffffffffffffffffffffffffffffffff1673ffffffffffffffffffffffffffffffffffffffff168152602001600282015481525050838381518110610d9f577f4e487b7100000000000000000000000000000000000000000000000000000000600052603260045260246000fd5b60200260200101819052508180610db5906131bc565b9250505b8080610dc4906131bc565b915050610c60565b5081935050505090565b6000806002600084815260200190815260200160002060009054906101000a900473ffffffffffffffffffffffffffffffffffffffff169050600073ffffffffffffffffffffffffffffffffffffffff168173ffffffffffffffffffffffffffffffffffffffff161415610e7f576040517f08c379a0000000000000000000000000000000000000000000000000000000008152600401610e7690612db2565b60405180910390fd5b80915050919050565b60078054610e9590613159565b80601f0160208091040260200160405190810160405280929190818152602001828054610ec190613159565b8015610f0e5780601f10610ee357610100808354040283529160200191610f0e565b820191906000526020600020905b815481529060010190602001808311610ef157829003601f168201915b505050505081565b60008073ffffffffffffffffffffffffffffffffffffffff168273ffffffffffffffffffffffffffffffffffffffff161415610f87576040517f08c379a0000000000000000000000000000000000000000000000000000000008152600401610f7e90612d92565b60405180910390fd5b600360008373ffffffffffffffffffffffffffffffffffffffff1673ffffffffffffffffffffffffffffffffffffffff168152602001908152602001600020549050919050565b610fd6611979565b73ffffffffffffffffffffffffffffffffffffffff16610ff461138e565b73ffffffffffffffffffffffffffffffffffffffff161461104a576040517f08c379a000000000000000000000000000000000000000000000000000000000815260040161104190612e12565b60405180910390fd5b6110546000611d7f565b565b6060600080600090505b60088054905081101561112e57600073ffffffffffffffffffffffffffffffffffffffff16600882815481106110bf577f4e487b7100000000000000000000000000000000000000000000000000000000600052603260045260246000fd5b906000526020600020906003020160010160009054906101000a900473ffffffffffffffffffffffffffffffffffffffff1673ffffffffffffffffffffffffffffffffffffffff161461111b578180611117906131bc565b9250505b8080611126906131bc565b915050611060565b5060008167ffffffffffffffff811115611171577f4e487b7100000000000000000000000000000000000000000000000000000000600052604160045260246000fd5b6040519080825280602002602001820160405280156111aa57816020015b611197612411565b81526020019060019003908161118f5790505b509050600080600090505b60088054905081101561138457600073ffffffffffffffffffffffffffffffffffffffff1660088281548110611214577f4e487b7100000000000000000000000000000000000000000000000000000000600052603260045260246000fd5b906000526020600020906003020160010160009054906101000a900473ffffffffffffffffffffffffffffffffffffffff1673ffffffffffffffffffffffffffffffffffffffff1614611371576008818154811061129b577f4e487b7100000000000000000000000000000000000000000000000000000000600052603260045260246000fd5b9060005260206000209060030201604051806060016040529081600082015481526020016001820160009054906101000a900473ffffffffffffffffffffffffffffffffffffffff1673ffffffffffffffffffffffffffffffffffffffff1673ffffffffffffffffffffffffffffffffffffffff168152602001600282015481525050838381518110611357577f4e487b7100000000000000000000000000000000000000000000000000000000600052603260045260246000fd5b6020026020010181905250818061136d906131bc565b9250505b808061137c906131bc565b9150506111b5565b5081935050505090565b6000600660009054906101000a900473ffffffffffffffffffffffffffffffffffffffff16905090565b6060600180546113c790613159565b80601f01602080910402602001604051908101604052809291908181526020018280546113f390613159565b80156114405780601f1061141557610100808354040283529160200191611440565b820191906000526020600020905b81548152906001019060200180831161142357829003601f168201915b5050505050905090565b61145c611455611979565b8383611e45565b5050565b61147161146b611979565b83611a3a565b6114b0576040517f08c379a00000000000000000000000000000000000000000000000000000000081526004016114a790612e72565b60405180910390fd5b6114bc84848484611fb2565b50505050565b60606114cd8261190d565b61150c576040517f08c379a000000000000000000000000000000000000000000000000000000000815260040161150390612e32565b60405180910390fd5b600061151661200e565b905060008151116115365760405180602001604052806000815250611561565b80611540846120a0565b604051602001611551929190612b7f565b6040516020818303038152906040525b915050919050565b3373ffffffffffffffffffffffffffffffffffffffff1661158983610dd6565b73ffffffffffffffffffffffffffffffffffffffff16146115df576040517f08c379a00000000000000000000000000000000000000000000000000000000081526004016115d690612e92565b60405180910390fd5b336008838154811061161a577f4e487b7100000000000000000000000000000000000000000000000000000000600052603260045260246000fd5b906000526020600020906003020160010160006101000a81548173ffffffffffffffffffffffffffffffffffffffff021916908373ffffffffffffffffffffffffffffffffffffffff16021790555080600883815481106116a4577f4e487b7100000000000000000000000000000000000000000000000000000000600052603260045260246000fd5b9060005260206000209060030201600201819055506116c4333084611b18565b3373ffffffffffffffffffffffffffffffffffffffff16827fb2ba12d2566848b13548a3741edb565b69d3cbce7796959cd67431610207eb138360405161170b9190612eb2565b60405180910390a35050565b6000600560008473ffffffffffffffffffffffffffffffffffffffff1673ffffffffffffffffffffffffffffffffffffffff16815260200190815260200160002060008373ffffffffffffffffffffffffffffffffffffffff1673ffffffffffffffffffffffffffffffffffffffff16815260200190815260200160002060009054906101000a900460ff16905092915050565b6117b3611979565b73ffffffffffffffffffffffffffffffffffffffff166117d161138e565b73ffffffffffffffffffffffffffffffffffffffff1614611827576040517f08c379a000000000000000000000000000000000000000000000000000000000815260040161181e90612e12565b60405180910390fd5b600073ffffffffffffffffffffffffffffffffffffffff168173ffffffffffffffffffffffffffffffffffffffff161415611897576040517f08c379a000000000000000000000000000000000000000000000000000000000815260040161188e90612cb2565b60405180910390fd5b6118a081611d7f565b50565b60007f01ffc9a7000000000000000000000000000000000000000000000000000000007bffffffffffffffffffffffffffffffffffffffffffffffffffffffff1916827bffffffffffffffffffffffffffffffffffffffffffffffffffffffff1916149050919050565b60008073ffffffffffffffffffffffffffffffffffffffff166002600084815260200190815260200160002060009054906101000a900473ffffffffffffffffffffffffffffffffffffffff1673ffffffffffffffffffffffffffffffffffffffff1614159050919050565b600033905090565b816004600083815260200190815260200160002060006101000a81548173ffffffffffffffffffffffffffffffffffffffff021916908373ffffffffffffffffffffffffffffffffffffffff160217905550808273ffffffffffffffffffffffffffffffffffffffff166119f483610dd6565b73ffffffffffffffffffffffffffffffffffffffff167f8c5be1e5ebec7d5bd14f71427d1e84f3dd0314c0f7b2291e5b200ac8c7c3b92560405160405180910390a45050565b6000611a458261190d565b611a84576040517f08c379a0000000000000000000000000000000000000000000000000000000008152600401611a7b90612d52565b60405180910390fd5b6000611a8f83610dd6565b90508073ffffffffffffffffffffffffffffffffffffffff168473ffffffffffffffffffffffffffffffffffffffff161480611afe57508373ffffffffffffffffffffffffffffffffffffffff16611ae6846106af565b73ffffffffffffffffffffffffffffffffffffffff16145b80611b0f5750611b0e8185611717565b5b91505092915050565b8273ffffffffffffffffffffffffffffffffffffffff16611b3882610dd6565b73ffffffffffffffffffffffffffffffffffffffff1614611b8e576040517f08c379a0000000000000000000000000000000000000000000000000000000008152600401611b8590612cd2565b60405180910390fd5b600073ffffffffffffffffffffffffffffffffffffffff168273ffffffffffffffffffffffffffffffffffffffff161415611bfe576040517f08c379a0000000000000000000000000000000000000000000000000000000008152600401611bf590612d12565b60405180910390fd5b611c0983838361224d565b611c14600082611981565b6001600360008573ffffffffffffffffffffffffffffffffffffffff1673ffffffffffffffffffffffffffffffffffffffff1681526020019081526020016000206000828254611c64919061305d565b925050819055506001600360008473ffffffffffffffffffffffffffffffffffffffff1673ffffffffffffffffffffffffffffffffffffffff1681526020019081526020016000206000828254611cbb9190612fd6565b92505081905550816002600083815260200190815260200160002060006101000a81548173ffffffffffffffffffffffffffffffffffffffff021916908373ffffffffffffffffffffffffffffffffffffffff160217905550808273ffffffffffffffffffffffffffffffffffffffff168473ffffffffffffffffffffffffffffffffffffffff167fddf252ad1be2c89b69c2b068fc378daa952ba7f163c4a11628f55a4df523b3ef60405160405180910390a4611d7a838383612252565b505050565b6000600660009054906101000a900473ffffffffffffffffffffffffffffffffffffffff16905081600660006101000a81548173ffffffffffffffffffffffffffffffffffffffff021916908373ffffffffffffffffffffffffffffffffffffffff1602179055508173ffffffffffffffffffffffffffffffffffffffff168173ffffffffffffffffffffffffffffffffffffffff167f8be0079c531659141344cd1fd0a4f28419497f9722a3daafe3b4186f6b6457e060405160405180910390a35050565b8173ffffffffffffffffffffffffffffffffffffffff168373ffffffffffffffffffffffffffffffffffffffff161415611eb4576040517f08c379a0000000000000000000000000000000000000000000000000000000008152600401611eab90612d32565b60405180910390fd5b80600560008573ffffffffffffffffffffffffffffffffffffffff1673ffffffffffffffffffffffffffffffffffffffff16815260200190815260200160002060008473ffffffffffffffffffffffffffffffffffffffff1673ffffffffffffffffffffffffffffffffffffffff16815260200190815260200160002060006101000a81548160ff0219169083151502179055508173ffffffffffffffffffffffffffffffffffffffff168373ffffffffffffffffffffffffffffffffffffffff167f17307eab39ab6107e8899845ad3d59bd9653f200f220920489ca2b5937696c3183604051611fa59190612c55565b60405180910390a3505050565b611fbd848484611b18565b611fc984848484612257565b612008576040517f08c379a0000000000000000000000000000000000000000000000000000000008152600401611fff90612c92565b60405180910390fd5b50505050565b60606007805461201d90613159565b80601f016020809104026020016040519081016040528092919081815260200182805461204990613159565b80156120965780601f1061206b57610100808354040283529160200191612096565b820191906000526020600020905b81548152906001019060200180831161207957829003601f168201915b5050505050905090565b606060008214156120e8576040518060400160405280600181526020017f30000000000000000000000000000000000000000000000000000000000000008152509050612248565b600082905060005b6000821461211a578080612103906131bc565b915050600a82612113919061302c565b91506120f0565b60008167ffffffffffffffff81111561215c577f4e487b7100000000000000000000000000000000000000000000000000000000600052604160045260246000fd5b6040519080825280601f01601f19166020018201604052801561218e5781602001600182028036833780820191505090505b5090505b60008514612241576001826121a7919061305d565b9150600a856121b69190613205565b60306121c29190612fd6565b60f81b8183815181106121fe577f4e487b7100000000000000000000000000000000000000000000000000000000600052603260045260246000fd5b60200101907effffffffffffffffffffffffffffffffffffffffffffffffffffffffffffff1916908160001a905350600a8561223a919061302c565b9450612192565b8093505050505b919050565b505050565b505050565b60006122788473ffffffffffffffffffffffffffffffffffffffff166123ee565b156123e1578373ffffffffffffffffffffffffffffffffffffffff1663150b7a026122a1611979565b8786866040518563ffffffff1660e01b81526004016122c39493929190612bbe565b602060405180830381600087803b1580156122dd57600080fd5b505af192505050801561230e57506040513d601f19601f8201168201806040525081019061230b91906126e9565b60015b612391573d806000811461233e576040519150601f19603f3d011682016040523d82523d6000602084013e612343565b606091505b50600081511415612389576040517f08c379a000000000000000000000000000000000000000000000000000000000815260040161238090612c92565b60405180910390fd5b805181602001fd5b63150b7a0260e01b7bffffffffffffffffffffffffffffffffffffffffffffffffffffffff1916817bffffffffffffffffffffffffffffffffffffffffffffffffffffffff1916149150506123e6565b600190505b949350505050565b6000808273ffffffffffffffffffffffffffffffffffffffff163b119050919050565b604051806060016040528060008152602001600073ffffffffffffffffffffffffffffffffffffffff168152602001600081525090565b600061245b61245684612f29565b612f04565b90508281526020810184848401111561247357600080fd5b61247e848285613117565b509392505050565b600081359050612495816137d0565b92915050565b6000813590506124aa816137e7565b92915050565b6000813590506124bf816137fe565b92915050565b6000815190506124d4816137fe565b92915050565b600082601f8301126124eb57600080fd5b81356124fb848260208601612448565b91505092915050565b60008135905061251381613815565b92915050565b60006020828403121561252b57600080fd5b600061253984828501612486565b91505092915050565b6000806040838503121561255557600080fd5b600061256385828601612486565b925050602061257485828601612486565b9150509250929050565b60008060006060848603121561259357600080fd5b60006125a186828701612486565b93505060206125b286828701612486565b92505060406125c386828701612504565b9150509250925092565b600080600080608085870312156125e357600080fd5b60006125f187828801612486565b945050602061260287828801612486565b935050604061261387828801612504565b925050606085013567ffffffffffffffff81111561263057600080fd5b61263c878288016124da565b91505092959194509250565b6000806040838503121561265b57600080fd5b600061266985828601612486565b925050602061267a8582860161249b565b9150509250929050565b6000806040838503121561269757600080fd5b60006126a585828601612486565b92505060206126b685828601612504565b9150509250929050565b6000602082840312156126d257600080fd5b60006126e0848285016124b0565b91505092915050565b6000602082840312156126fb57600080fd5b6000612709848285016124c5565b91505092915050565b60006020828403121561272457600080fd5b600061273284828501612504565b91505092915050565b6000806040838503121561274e57600080fd5b600061275c85828601612504565b925050602061276d85828601612504565b9150509250929050565b60006127838383612b1f565b60608301905092915050565b612798816130a3565b82525050565b6127a7816130a3565b82525050565b6127b681613091565b82525050565b60006127c782612f6a565b6127d18185612f98565b93506127dc83612f5a565b8060005b8381101561280d5781516127f48882612777565b97506127ff83612f8b565b9250506001810190506127e0565b5085935050505092915050565b612823816130b5565b82525050565b600061283482612f75565b61283e8185612fa9565b935061284e818560208601613126565b612857816132f2565b840191505092915050565b600061286d82612f80565b6128778185612fba565b9350612887818560208601613126565b612890816132f2565b840191505092915050565b60006128a682612f80565b6128b08185612fcb565b93506128c0818560208601613126565b80840191505092915050565b60006128d9603283612fba565b91506128e482613303565b604082019050919050565b60006128fc602683612fba565b915061290782613352565b604082019050919050565b600061291f602583612fba565b915061292a826133a1565b604082019050919050565b6000612942603683612fba565b915061294d826133f0565b604082019050919050565b6000612965602483612fba565b91506129708261343f565b604082019050919050565b6000612988601983612fba565b91506129938261348e565b602082019050919050565b60006129ab602c83612fba565b91506129b6826134b7565b604082019050919050565b60006129ce603883612fba565b91506129d982613506565b604082019050919050565b60006129f1602a83612fba565b91506129fc82613555565b604082019050919050565b6000612a14602983612fba565b9150612a1f826135a4565b604082019050919050565b6000612a37601283612fba565b9150612a42826135f3565b602082019050919050565b6000612a5a602c83612fba565b9150612a658261361c565b604082019050919050565b6000612a7d602083612fba565b9150612a888261366b565b602082019050919050565b6000612aa0602f83612fba565b9150612aab82613694565b604082019050919050565b6000612ac3602183612fba565b9150612ace826136e3565b604082019050919050565b6000612ae6603183612fba565b9150612af182613732565b604082019050919050565b6000612b09602383612fba565b9150612b1482613781565b604082019050919050565b606082016000820151612b356000850182612b61565b506020820151612b48602085018261278f565b506040820151612b5b6040850182612b61565b50505050565b612b6a8161310d565b82525050565b612b798161310d565b82525050565b6000612b8b828561289b565b9150612b97828461289b565b91508190509392505050565b6000602082019050612bb860008301846127ad565b92915050565b6000608082019050612bd360008301876127ad565b612be060208301866127ad565b612bed6040830185612b70565b8181036060830152612bff8184612829565b905095945050505050565b6000604082019050612c1f60008301856127ad565b612c2c6020830184612b70565b9392505050565b60006020820190508181036000830152612c4d81846127bc565b905092915050565b6000602082019050612c6a600083018461281a565b92915050565b60006020820190508181036000830152612c8a8184612862565b905092915050565b60006020820190508181036000830152612cab816128cc565b9050919050565b60006020820190508181036000830152612ccb816128ef565b9050919050565b60006020820190508181036000830152612ceb81612912565b9050919050565b60006020820190508181036000830152612d0b81612935565b9050919050565b60006020820190508181036000830152612d2b81612958565b9050919050565b60006020820190508181036000830152612d4b8161297b565b9050919050565b60006020820190508181036000830152612d6b8161299e565b9050919050565b60006020820190508181036000830152612d8b816129c1565b9050919050565b60006020820190508181036000830152612dab816129e4565b9050919050565b60006020820190508181036000830152612dcb81612a07565b9050919050565b60006020820190508181036000830152612deb81612a2a565b9050919050565b60006020820190508181036000830152612e0b81612a4d565b9050919050565b60006020820190508181036000830152612e2b81612a70565b9050919050565b60006020820190508181036000830152612e4b81612a93565b9050919050565b60006020820190508181036000830152612e6b81612ab6565b9050919050565b60006020820190508181036000830152612e8b81612ad9565b9050919050565b60006020820190508181036000830152612eab81612afc565b9050919050565b6000602082019050612ec76000830184612b70565b92915050565b6000606082019050612ee26000830186612b70565b612eef602083018561279e565b612efc6040830184612b70565b949350505050565b6000612f0e612f1f565b9050612f1a828261318b565b919050565b6000604051905090565b600067ffffffffffffffff821115612f4457612f436132c3565b5b612f4d826132f2565b9050602081019050919050565b6000819050602082019050919050565b600081519050919050565b600081519050919050565b600081519050919050565b6000602082019050919050565b600082825260208201905092915050565b600082825260208201905092915050565b600082825260208201905092915050565b600081905092915050565b6000612fe18261310d565b9150612fec8361310d565b9250827fffffffffffffffffffffffffffffffffffffffffffffffffffffffffffffffff0382111561302157613020613236565b5b828201905092915050565b60006130378261310d565b91506130428361310d565b92508261305257613051613265565b5b828204905092915050565b60006130688261310d565b91506130738361310d565b92508282101561308657613085613236565b5b828203905092915050565b600061309c826130ed565b9050919050565b60006130ae826130ed565b9050919050565b60008115159050919050565b60007fffffffff0000000000000000000000000000000000000000000000000000000082169050919050565b600073ffffffffffffffffffffffffffffffffffffffff82169050919050565b6000819050919050565b82818337600083830152505050565b60005b83811015613144578082015181840152602081019050613129565b83811115613153576000848401525b50505050565b6000600282049050600182168061317157607f821691505b6020821081141561318557613184613294565b5b50919050565b613194826132f2565b810181811067ffffffffffffffff821117156131b3576131b26132c3565b5b80604052505050565b60006131c78261310d565b91507fffffffffffffffffffffffffffffffffffffffffffffffffffffffffffffffff8214156131fa576131f9613236565b5b600182019050919050565b60006132108261310d565b915061321b8361310d565b92508261322b5761322a613265565b5b828206905092915050565b7f4e487b7100000000000000000000000000000000000000000000000000000000600052601160045260246000fd5b7f4e487b7100000000000000000000000000000000000000000000000000000000600052601260045260246000fd5b7f4e487b7100000000000000000000000000000000000000000000000000000000600052602260045260246000fd5b7f4e487b7100000000000000000000000000000000000000000000000000000000600052604160045260246000fd5b6000601f19601f8301169050919050565b7f4552433732313a207472616e7366657220746f206e6f6e20455243373231526560008201527f63656976657220696d706c656d656e7465720000000000000000000000000000602082015250565b7f4f776e61626c653a206e6577206f776e657220697320746865207a65726f206160008201527f6464726573730000000000000000000000000000000000000000000000000000602082015250565b7f4552433732313a207472616e736665722066726f6d20696e636f72726563742060008201527f6f776e6572000000000000000000000000000000000000000000000000000000602082015250565b7f506c656173652073656e642074686520636f727265637420707269636520746f60008201527f20636f6d706c6574652074686520707572636861736500000000000000000000602082015250565b7f4552433732313a207472616e7366657220746f20746865207a65726f2061646460008201527f7265737300000000000000000000000000000000000000000000000000000000602082015250565b7f4552433732313a20617070726f766520746f2063616c6c657200000000000000600082015250565b7f4552433732313a206f70657261746f7220717565727920666f72206e6f6e657860008201527f697374656e7420746f6b656e0000000000000000000000000000000000000000602082015250565b7f4552433732313a20617070726f76652063616c6c6572206973206e6f74206f7760008201527f6e6572206e6f7220617070726f76656420666f7220616c6c0000000000000000602082015250565b7f4552433732313a2062616c616e636520717565727920666f7220746865207a6560008201527f726f206164647265737300000000000000000000000000000000000000000000602082015250565b7f4552433732313a206f776e657220717565727920666f72206e6f6e657869737460008201527f656e7420746f6b656e0000000000000000000000000000000000000000000000602082015250565b7f546f6b656e206e6f7420666f722073616c650000000000000000000000000000600082015250565b7f4552433732313a20617070726f76656420717565727920666f72206e6f6e657860008201527f697374656e7420746f6b656e0000000000000000000000000000000000000000602082015250565b7f4f776e61626c653a2063616c6c6572206973206e6f7420746865206f776e6572600082015250565b7f4552433732314d657461646174613a2055524920717565727920666f72206e6f60008201527f6e6578697374656e7420746f6b656e0000000000000000000000000000000000602082015250565b7f4552433732313a20617070726f76616c20746f2063757272656e74206f776e6560008201527f7200000000000000000000000000000000000000000000000000000000000000602082015250565b7f4552433732313a207472616e736665722063616c6c6572206973206e6f74206f60008201527f776e6572206e6f7220617070726f766564000000000000000000000000000000602082015250565b7f4f6e6c7920746865206f776e65722063616e20726573656c6c2074686520746f60008201527f6b656e0000000000000000000000000000000000000000000000000000000000602082015250565b6137d981613091565b81146137e457600080fd5b50565b6137f0816130b5565b81146137fb57600080fd5b50565b613807816130c1565b811461381257600080fd5b50565b61381e8161310d565b811461382957600080fd5b5056fea2646970667358221220d61d883c7c2ffc0fb94b3296d08e1385b4cb295d7c7a695b26cb2b0fc55393c364736f6c6343000804003368747470733a2f2f676174657761792e70696e6174612e636c6f75642f697066732f",
  "linkReferences": {},
  "deployedLinkReferences": {}
}